:020000040000fa
:10000000f07f002051190000f31b00007b1c000052
:1000100000000000000000000000000000000000e0
:10002000000000000000000000000000b71d0000fc
:100030000000000000000000b71d0000b71d000018
:10004000b71d0000b71d0000651b0000b71d0000b4
:10005000b71d0000b71d0000b71d0000b71d000050
:10006000b71d0000b71d0000b71d0000650a0000a5
:10007000b71d0000b71d0000b71d0000b71d000030
:10008000b71d0000b71d0000b71d0000b71d000020
:10009000b71d0000b71d0000b71d0000b71d000010
:1000a000b71d0000991d0000b71d0000b71d00001e
:020000040000fa
:1000b000f8b5c046f8bc08bc9e4670473119000030
:1000c000f8b5c046f8bc08bc9e4670470919000048
:020000040000fa
:1000d000f0b587b00090009b0b20002b00d1e2e12f
:1000e000002603275b68049602931b8801960593fc
:1000f0000396049b059a93421ed1009b1a681378bd
:1001000059b200290bda0820002101268446049cfc
:1001100088b2844200d9ffe07f210b401370039b1b
:10012000002b00d009e1019801231178002800d1ab
:100130005be10b4313705ae1009bb5009b685d19ae
:100140001e236a681178194001d001232b702b7887
:10015000042b73d00ad8022b2ed043d8012b23d0e6
:10016000049b033601339bb20493c2e7852b00d175
:1001700082e0862b00d1a9e0072bf1d12989538891
:1001800099425fd9c91a009b0298db6840799b5d50
:1001900089b20341dbb28b4254d86b78002b69d112
:1001a00001232b701770dbe703930029d8d10223ba
:1001b0002b7008236b70d3e76978002910d0528820
:1001c000042904d92a810139697001237ce02b8933
:1001d0009342f8d002d9013b2b81f4e70133fbe7ce
:1001e0002f70bde7298953889942b9d0009ad26807
:1001f00010d9cb1a0299925d49799bb20a41d2b2c9
:100200009a42add8029b1b79002ba9d007222a70f5
:100210006b70dae792195b1a11789bb299429fd8fa
:100220009378002b05d00499009801f015fa002866
:1002300096d104232b70029b9b78e9e72989538888
:10024000994202d92f700023b4e7009a5b1ad26852
:100250009bb2921911789942f4d29378002b06d070
:100260000499009801f0f8f9002800d078e76b783d
:10027000002b47d0013bcbe7029b00991b7a096812
:100280000b7128895388984207d986232b70029bcb
:100290009b786b700123019316e0009a1b1ad268b9
:1002a0009bb291190a784978140001310c4101215f
:1002b000121bd2b201919a4200d251e786232b70d1
:1002c000029b9b786b700b00039349e72889538846
:1002d000984209d96b78002b01d12f7001e0013bc6
:1002e0006b70012301933be7009a1b1ad2689bb203
:1002f00091190a784978140001310c41121bd2b2cd
:100300009a4204d285232b70029bdb78e8e76b7856
:10031000002be2d0013bbce70c2500984d438068e0
:1003200045196f683878304205d164462d78a54369
:1003300001d0304338700131e9e6029b597a002937
:1003400000d1f0e6802310785b420343137001294b
:1003500000d0e8e600218bb20393049b88b283426d
:1003600000d8e0e60c20009b48439b68082518183d
:10037000029303781c00ac4315d0852b01d0032bce
:100380002ed10325009bdf682b004b43fb189b7885
:100390009c46002b07d000231e000595049c9c4220
:1003a00008d8002e1cd1012540680378ab430370a8
:1003b0000131d0e7039c9c420fd00c255d43029c89
:1003c0002d5d042d01d0862d07d1059d5d437d193e
:1003d000ad78654501d10126049b01339bb2dde771
:1003e0000123406805782b43e1e799431170528857
:1003f000584b11001b88c8318b4251d99b1a9bb2b4
:100400009c466346c82b4dd96346c83b9bb29c466d
:10041000009b1b685a88c8325a801a79002a00d07b
:1004200070e05a79002a01d0013a5a719a79002a6b
:1004300001d0013a9a71009a50688679002e07d04f
:100440005a79002a04d1078891b28f4234d85e715c
:10045000c579002d07d09a79002a04d1068891b277
:10046000b1423cd39d71009b5b68da78002ac8d00a
:100470001f880c23002103207b4302938bb2bb42d5
:10048000bfd20c22009b4a439b689a181578852d91
:1004900004d15578002d38d0013d55700131ede77c
:1004a000934202d3002007b0f0bd2b495918891a96
:1004b000c829f7d9013ba1e70c21009c5143a4684e
:1004c00061180d78032d01d0082d06d14c680d89d7
:1004d0006488ac4201d901350d810132b4e70c21a9
:1004e00000985143806841180878032801d00828f3
:1004f00006d14c6808896788874201d20138088193
:100500000132ace7013a1a71ade70124050014701d
:1005100052684d431070009ad2685519ad78002d7d
:10052000bcd0029c02321c1901920394039a93429c
:10053000b4d0019a1678ae4206d101225e683478b2
:10054000144201d01a703070019a0c3303320192b8
:0c055000ece7c046f6010020ffff0000b1
:020000040000fa
:10055c000322f0b5ae4b89b01b7a0592002b14d058
:10056c00ac4b1b6803931b6804931b880693aa4b24
:10057c001b6807930023029305936b461a89069b0d
:10058c009a4205d30222a24b1a72059809b0f0bd0b
:10059c00029b07995b00cc5a062302994b430399a3
:1005ac008968ce180399029b49683578db00cb1813
:1005bc00ed0601936d0f9b79042d00d925e12800e0
:1005cc0001f0b0fb050013000501d6000f000f2150
:1005dc00019a52790a40934201d99d1aedb22c41ed
:1005ec007480029b01330293c7e71c418b4aa3b270
:1005fc007380b788934217d9894a9b182a009bb2fb
:10060c0004998978402914d15b08151e13d1854aa9
:10061c00002597420fd1812333700e230593337835
:10062c005a0622d5012330e07c4ad31a9bb2002211
:10063c00e6e7002aebd1042bf1d90f24b9043a12c6
:10064c003811890f224020402740002d32d0cf2b6b
:10065c0001d9002962d1152b6ad9002a63d10a1e4f
:10066c0068d00139c9b20a2264e05bb2002b0ddb01
:10067c000322049bdb781340022b0bd10f22019b2e
:10068c001b799343019a137109233370bf04bf0c78
:10069c00b780a6e7012bc5d10f22019b1b791a400d
:1006ac0030231343019a13710d23eee70131cf3b35
:1006bc00c9b29bb2cf2b01d90329f7d1152b0dd978
:1006cc000f2a06d10f2203290ad00131c9b2052203
:1006dc0006e00132153bd2b29bb2efe70f2af1d004
:1006ec00022b0dd90f2806d10f2a0fd1032900d1c7
:1006fc008ce010000fe00130023bc0b29bb2efe780
:10070c000f28f1d0032924d1032104e00132d2b205
:10071c0005200329f8d0022bccd81ae00139cf3ba5
:10072c00c9b29bb293e7013a153bd2b29bb292e7a6
:10073c00002a94d0022b0ad9002803d1002a10d108
:10074c00100006e00138023bc0b29bb2f2e7002871
:10075c00f4d009038cb2120214432743000107435f
:10076c0096e7013ad2b20a20022b00d96fe7f0e7e4
:10077c001c41019ba4b21f793d09032d25d02100fa
:10078c00100000f01fff00281ad10135012333702f
:10079c000f232d011f40019b3d431d713378748045
:1007ac00012b00d01de7ff33ff339c422ad91c4b91
:1007bc00e418a4b2052c00d813e74523337010e7d6
:1007cc00002de3d0013dedb2e2e70225e0e71c414c
:1007dc000f25019ba4b21f793d4011d021001000c0
:1007ec0000f0f0fe002806d1013dedb2012333707c
:1007fc000f239f43cfe7032df8d00135edb2f7e778
:10080c000125f5e7054b1c1bd3e7fee7170097e71f
:10081c00b80100200400002008000020ff010000a7
:08082c0001feffffff3f000089
:020000040000fa
:100834009c0100201c00000000000000d0010020ea
:100844000c000000000000000c00002080000000ec
:10085400000000008c000020800000000000000068
:100864005c0100204000000000000000fe010020a8
:10087400010000000000000014020020130000002a
:10088400010000005fb400864a03eb000000000092
:100894000000aa55016ea000ff0100200100000025
:1008a400000000000e020020010000000000000013
:1008b400f00100200600000000000000f801002004
:1008c4000600000000000000dc0100200c00000015
:1008d40000000000e8010020080000000000000003
:1008e4000002002004000000000000000f020020ad
:1008f40001000000000000000c02002002000000c3
:1009040000000000100200200100000000000000b0
:100914008402002003000000010000000001020026
:100924007802002006000000010000000100803071
:10093400000300006802002008000000010000001d
:100944000000000100010400380200200c00000037
:10095400010000007802002068020020f801002055
:1009640080020020030000000100000014010000c8
:100974005c0200200a000000010000000100041ec7
:1009840005010a050a0100002802002010000000e9
:1009940001000000e80100205c020020dc010020ce
:1009a40080020020440200200c000000010000002e
:1009b400010003007c020020840200207002002059
:1009c4000800000001000000500200204402002042
:1009d400500200200c000000010000000000000094
:1009e400f0010020f80100201102002001000000a5
:1009f40000000000270200200100000001000000a8
:100a040001000000b80100201800000000000000f0
:100a1400000000200c00000000000000f60100208f
:100a24000200000000000000040200200400000096
:100a3400000000000c010020500000000000000035
:100a44000802002004000000000000000000000074
:100a54000000000044444444444444444444444462
:020000040000fa
:100a6400f0b5de4657464e464546e0b583b07f4b6b
:100a74009b7d002b00d1f1e07c4a137edbb2927d9a
:100a840052b2002a18db794a137edbb2927dd20778
:100a940000d4d6e0db0700d4d3e0754c754b984600
:100aa400734b1b699946724b187d704a01239b4610
:100ab40007256b46991d30e05bb2002be3da6b4be4
:100ac4005b8b07221340ded0694ad387674b8022b1
:100ad4001a76793a5a831b7e5b0705d5634b04214a
:100ae4001a8d1a7e0a42fbd1614b1b6a002bcad0b5
:100af4005f4a516a02209847c5e75f00bc464746f3
:100b04006646be5d0e70c444664676784e70013308
:100b140016e00b78138500281ed1137e5e463342ff
:100b240000d18ee0a3689c46e3689c4500d185e033
:100b340057682f40012fe0d04e4fff5c0f700133f8
:100b44004b45bf413b404a4ffb6053682b40012b50
:100b5400dfd10b881385dee701f0a2f8444b1b6854
:100b6400002b9dd0424a127f002a08d0404a926945
:100b7400904295d33e4a51680320984790e73c4af7
:100b8400926990428cd13a4a51680320984787e78a
:100b94004246126a002a23d0696a01209047ab6a50
:100ba40001332a6b93429241134019e0304a926a0e
:100bb40031498c542e4a93623423d35c002b22d1c6
:100bc4002a4b1b7e5b0749d5284b1c8da4b2b36a04
:100bd4000133326b934292411340fa6a9a42d7d05e
:100be400234ad26a9a42ebd0204a516807220a402b
:100bf400012adbd11e4a916a49001f4a54545218f3
:100c0400240a5470d6e701f01df8194b1b6a002b17
:100c1400d6d017493c228a5c002a06d08a6b9042bf
:100c2400ced3496a00209847cae7114a926b904292
:100c3400c6d10f4a516a00209847c1e70b4b0122e5
:100c44001a750a4a137edbb2927d520706d55b07fa
:100c540004d5074e3700b0463500b1e703b03cbcbd
:100c640090469946a246ab46f0bdc046000c0042f1
:0c0c74005c0100208c0000200c0000201f
:020000040000fa
:100c8000f0b587b0070001f065f802225d4c5e4dbb
:100c90002378fe00934323702b685c4a5b689b19a2
:100ca00099785b4b480706d4196911401961596955
:100cb0000a405a610ce0080700d595e080201969c8
:100cc000400111400143196159690a4010435861bc
:100cd00001f040f82b685b689b195b88238201f068
:100ce00039f82b685b689b5b638201f033f806235d
:100cf0002a687b439768ff18bb8823833b789b0750
:100d000001d505233b703f7801f024f8ff067f0fe3
:100d10003f23002f07d12b685b689b195a793d4b05
:100d200012099b181b7a0327a37601f013f82b688e
:100d30005b689b191b791b09e37601f00bf82b68a4
:100d40005b689b191a7923793a40bb43134323719b
:100d500001f000f82b6802255b689e19b27907261e
:100d6000637b3240b3431343637300f0f3ff237894
:100d70002b432370284b5b680393002b2bd0237be2
:100d80001b071b0f049323799b079b0f059300f010
:100d9000e1ff2378ab43237000f0dcff677100f0c4
:100da000d9ff1e4b677b1a68082311787f070b4316
:100db000137000f0cfff637b7f0fb3436373059a1b
:100dc000174b049900200097039eb04700f0c2ff24
:100dd00023781d43257000f0bdff8023627b5b42ba
:100de0001343637307b0f0bdc80604d480201969ab
:100df0001140800166e7890600d555e71969c020d2
:100e00001140f6e70014004304000020ff8fffffad
:100e100000100043261b0000b80100200000002045
:040e20000d1400436a
:020000040000fa
:100e2400f7b580213d4a3e4c1369c90023400b436a
:100e3400136153692340194351610b24002840d0a6
:100e44000368198800231f0001939ab291423ad88b
:100e54000224002f35d0019b00201b043b439c46f9
:100e640001210f2410256346c3400b4211d02d4ba2
:100e7400c35c1f2b35d82c4e5a08921916780b4296
:100e84002cd026402e431670284a9b181a780a4301
:100e94001a7001302028e6d10024254d00f058ffb7
:100ea400244b2c701e7aa6422bd100f051ff6b46c6
:100eb4009b883400eb8200f04bff01231d4aaf8274
:100ec40013722000febd4468da00a2181488019d44
:100ed40001332543019552881743b6e7a6430e43d1
:100ee400d1e7203b144edbb25a08921916780b4214
:100ef40004d026402e431670104ac6e7a6430e437c
:100f0400f9e700f025ffeb8a019a1a43ea8200f020
:100f14001fffab8a3b43ab82d3e7c04600100043bc
:100f2400fff8ffff061b0000302800404028004067
:100f340000140043b8010020b0280040c02800403d
:020000040000fa
:100f440070b582b03f4b1b781b0708d13e4c25007f
:100f54001335207800f084fe0134a542f9d15520e0
:100f640000f07efe374b187800f07afe6b460022c4
:100f7400da8006331b889bb2002b53d16b469c1d31
:100f8400324e10e0012000f06bfe228853009b18c3
:100f9400985d00f065fe238801339bb2238023888b
:100fa4009bb2002b3ed1208880b200f08dfe05005c
:100fb400c0b200f055fe2d0ae8b200f051fe2088c0
:100fc40080b200f08bfe0500c0b200f049fe2d0a8d
:100fd400e8b200f045fe208880b200f075fe0500fe
:100fe400208880b200f07afe2d1aadb2e8b200f08b
:100ff40037fe280a00f034fe208880b200f078fe24
:101004000500c0b200f02cfe2d0ae8b200f028fe64
:10101400208880b200f076fe0306b3d4002000f0ee
:101024001ffeb2e70a4b187800f01afe054b187839
:10103400421c1a7000f014feaa2000f011fe02b047
:1010440070bdc046fe010020140200208002002072
:041054000e02002068
:020000040000fa
:10105800f0b5de4657464e464546e0b585b0002910
:1010680000d175e03b4b1f6900249c4699461e0041
:101078009846029008e038485546855442469360a1
:10108800631c0134994253d9344b5a6807231340df
:10109800012b19d0b268f568531cbb42804103404c
:1010a8009d4246d00298005d82462c4d686807250f
:1010b8000540012ddfd15200274855468554824608
:1010c800524400255570d9e763469b6801936346ef
:1010d800da68019b0133bb42804103409a4228d021
:1010e8006200029d681c924602005046125c120281
:1010f800285c02431500039218484068834607207d
:101108008246584652461040012807d0124a280005
:10111800019d50554a469360631cb2e7019a5500f9
:101128000d4a0398505592465544020a6a70f1e7f1
:101138001c0000f077fd002802d0084b01229a75a8
:10114800200005b03cbc90469946a246ab46f0bd8f
:101158000c00eee75c0100208c000020000c00422f
:020000040000fa
:10116800f0b50b238db0002823d04368066801939f
:101178009a78737806935b000a93530801330593b2
:1011880093b20b9300239c460093019b00991b8804
:101198008b4211d8069b01990133dbb293429241ed
:1011a80089681340019ac95c5268117002685370cb
:1011b800002318000db0f0bd062300994b43b16819
:1011c800cb1803931b78db065b0f42d1614674682a
:1011d8004900611804910399049c49880a9d099360
:1011e80061539a4231d9049c59006118002408912e
:1011f8000294012110e09f420bd0029d6f00049dd4
:10120800ed5b0795089d2f88079dbd4217d10131d9
:10121800c9b2029d013502956d462f7aba42ead8c5
:10122800059d8d4204d9a54206d96118a94203db60
:10123800089b1b88099313000133dbb2d1e7079d94
:10124800bd42e6d20134e4b2e3e76946039b898ce8
:101258005980009b0b9901339bb2009363468c46df
:0812680063449bb29c4690e731
:020000040000fa
:10127000f7b5070001910b2400294fd000284dd06d
:10128000284d03242b7a002b48d00124042b45d071
:10129000022403685b79013ba3423fd8224e00f051
:1012a00059fd3378a3433370204b1f60019beb60e3
:1012b00000f048fa80221e4b9204da67bff34f8f8a
:1012c000bff36f8f0723b37200f044fd0122737ade
:1012d000802113437372174b89041a70c023164a76
:1012e0005b00d150c622144b920099583b681348ba
:1012f0005b7901409b071b0c0b430f498b508022ed
:1013000092040a6000232b8000f08afb061e07d19e
:10131000042328882b723400fff7b2fc2000febda6
:101320002c72fbe7b80100200014004304000020e9
:1013300004e100e02702002000e100e0ff00ffffe1
:020000040000fa
:10134000284a0e231375284900238b610b61274916
:10135000012048710730887113831100920dcb680a
:101360001342fcd0224b1b689b0e9b0280229200f2
:1013700013431c4ad3611100920dcb681342fcd079
:10138000184b02221a831900d201cb681342fcd0f9
:10139000184b194a1a62190004224b681a42fcd1f0
:1013a000144b164a5a62190008224b681a42fcd1a3
:1013b000104ad4234021d150100094314022435888
:1013c0001a42fcd00b4a82235b004121d15010000d
:1013d0001900402243581a42fcd0024b00221a75d1
:1013e0007047c046000c0040001000400004004060
:1013f00020608000001800400701010007010c0078
:020000040000fa
:1014000010b5224b1b78012b04d0214b1b78012bec
:101410000ad010bd1f492048fff72aff0028f4d149
:101420001a4b00221a70f0e7194b00221a70fff7ce
:1014300095f8002815d11948fff796fe00280ad123
:101440001748fef745fe002810d0164b03221a70ed
:10145000fff778fd0ae0134b02221a70fff772fdc6
:10146000eee7104b01221a70fff76cfd0c4b1b6866
:101470001b787f2b05d80c4b01221a70fff762fdf9
:10148000c7e7024b01221a70f8e7c0460f0200209e
:10149000100200208d1d0000380200207002002084
:0c14a000280200200e020020ff010020a6
:020000040000fa
:1014ac00f8b500f051fc02221f4c237893432370b3
:1014bc0000f068fba08ba18b1c4c1d4a2388126882
:1014cc005b00d1521b4b80b21b78012b02d0022b3c
:1014dc0010d0f8bd23880133238000f09bfa00283c
:1014ec0005d12088fff7c6fb04232372f1e7e368dc
:1014fc009847eee70f22104b25881e68e9007368a9
:10150c00002759184b791a408b799a4201d29b1ab1
:10151c00dfb20621f8406943b3685b185880022398
:10152c0023722369e4e7c04600140043b80100208d
:0c153c000800002027020020040000200e
:020000040000fa
:101548001d4b1e4a1a601e4a9a81c02292025a6096
:101558001a00d369002bfcd1174a136802210b43e8
:101568001360d369002bfcd1164b00221a629a62d1
:10157800da6234215a5408315a549a63da871a6065
:101588009a60da600021197519779a610a4b5a68ce
:1015980007231340012b09d00a4b80221a631a61d2
:1015a800054b80229a757c3a9a757047054b402204
:1015b8001a631a61f4e7c046000c004204011040a7
:0815c8002bf6ffff5c0100207f
:020000040000fa
:1015d000f0b506241e4b44431a68002093681c197a
:1015e00063888b422cd02cd2c91a126889b29378a6
:1015f000402b00d149080120842921d80020052949
:101600001ed9cf250f261527a3881c009804800f0c
:1016100068431d1235407d431b11334040195b0068
:10162000c018344080b2052c0dd8d378094a9b06e7
:101630009b0f5b009b5a594389b2884280414042cc
:10164000f0bd591ad1e70130053c80b2e4b2eae7b7
:0816500004000020261b00002d
:020000040000fa
:10165800f7b50c25c3684d439c46032382684b436a
:1016680055196c6863442d8964889f781b78641bbe
:10167800e41aa3b201930025436860461e88b54268
:1016880001d10020febd8d4218d08378bb4215d110
:1016980013787b33dbb2012b15d913899c46536829
:1016a8005b889c450ad264461b1b04789bb2a34204
:1016b80004d91b1b019c9bb29c4204d30135adb2db
:0a16c80003300c32dbe70120dce701
:020000040000fa
:0216d20070475f
:020000040000fa
:1016d4000021f0b5174b184a934208d30027174a44
:1016e40013685168002b05d1002903d1f0bd19708e
:1016f4000133f1e7100095680c305c18002d16d00a
:101704000b25ed1a5219a3420ad10b0003221340f0
:101714005a1e934189085918890040180200dfe7ce
:101724005d1cae5c1e702b00ede71f700133a342fd
:10173400fbd1f3e7000000200c0000203408000077
:020000040000fa
:10174400f8b5154b1b681b689a78402a1fd1134ab9
:101754000425127815431a790f2313400f2a00d950
:10176400102360241c4300f0f3fa042300260c4fda
:10177400e4b23b7000f0ecfa3e7100f0e9fa3c731d
:1017840000f0e6fa3000074bedb2dd77f8bd022039
:10179400802afbd1044adbe704000020041b00007c
:0c17a4000014004301140043051b00006a
:020000040000fa
:1017b00000230e4a10b513600d4a13600d4a1360e2
:1017c0000d4a13600d4a13600d4a536213610133d1
:1017d000936000f0f1fa00f0effa0a4c0a4b9c42d9
:1017e00000d310bd08cc9847f8e7c0460802002097
:1017f00018010020140100200c010020100100201d
:0c1800001c010020bc000000c000000023
:020000040000fa
:10180c00bff35f8f62b6114bc02080001a5810498d
:10181c001140c02212040a431a5004221a600830e4
:10182c001a581202120ac02109060a431a508022c1
:10183c0012011a6010301a5806491140c0221202c7
:10184c000a431a50802292041a60704700e100e0ab
:08185c00ffff00ffff00ffff8a
:020000040000fa
:1018640070b5002000f016f90f4c2600002504e0a6
:101874000e4a98238021c900d150fff7bffd237879
:10188400012bfad13570280000f03cfa7f230200c6
:101894009a43074b1a700306ead5044a942380211d
:1018a400c900d150e9e7c046ff01002000280040ec
:0418b40011020020fd
:020000040000fa
:1018b800030010b50b20002b16d01a6802201488dc
:1018c8008c4211d392789b68402a0ed106228d2033
:1018d8004a4380009a189080002006225143022231
:1018e8005b1819780a431a7010bd803ad2b2012adf
:1018f800f3d806224a4301489a18ece76705000026
:020000040000fa
:1019080010b5064c2378002b07d1054b002b02d0cd
:10191800044800e000bf0123237010bd9c01002093
:101928000000000000000000044b10b5002b03d09d
:101938000349044800e000bf10bdc0460000000095
:08194800a001002000000000d6
:020000040000fa
:1019500010b50a4b98470a4b984700f027fa094bf5
:10196000ff229343084a9360084b9847084b9847d7
:10197000084b9847fff776fffee7c046b51d00000d
:10198000b51d00000000000000ed00e0b1170000f0
:08199000b51d0000b51d0000ab
:020000040000fa
:101998000f4b04221a613e3206219954413a4431d0
:1019a8005a540c315a5401315a54002131201954d7
:1019b80004301a543a32133898548022d2005e30d8
:1019c8001a5010301a50ca229954153a995470472f
:0419d80000280040a3
:020000040000fa
:1019dc0010b500f03ff80b4c2000fff71dfa0a4839
:1019ec0000f096f90021200000f0def80021200024
:1019fc00fff75cff054a0021054800f0e5f800f010
:101a0c00aaf810bd380200200c020020f8010020ba
:041a1c00280200207c
:020000040000fa
:101a20000d4a70b51068012502680c491488062219
:101a30000b885a43a3420ad28668b65c06322e420d
:101a400002d101339bb2f5e700200b8070bd00236b
:101a500001200b80fae7c04604000020b8010020f6
:020000040000fa
:101a600010b50a4b19680a4800f08af9094908229a
:101a70000b691a42fcd100f0cbf8002000f0fef810
:101a8000142000f005f900f0b5f810bd00020020a8
:081a9000a51d0000002000402c
:020000040000fa
:101a980010b50c4b06225a6000f048f8fff778ffa3
:101aa800fff74afcfff74cfd00f060f9fff70dfe69
:101ab80000f00af800f042f9fff78cfffff7a2feea
:081ac80010bdc04600400041c2
:020000040000fa
:101ad0000b4b01221a8019000b691a42fcd1084bea
:101ae000c02252001a80803aff3a1a6219001f324f
:101af0000b691a42fcd1024b802252005a81704776
:041b00000020004081
:020000040000fa
:101b040080a002032a2b062c08090a0b2425262769
:101b14002d2908090a0b10111213141516172c2d50
:101b24002e2f07001300350090003f1c0b05030106
:020000040000fa
:101b34008023db0500221a819a7901210a439a71d4
:101b44009b7803221340022b08d08023db05013a43
:0e1b54009a701900013a8b791342fcd0704749
:020000040000fa
:021b62007047ca
:020000040000fa
:101b640010b5074b988980b2064a5060064999819e
:101b74009b891368002b01d09168984710bdc0461b
:0c1b840000200040d0010020ff81ffff86
:020000040000fa
:101b90000222074b997ac9b2114202d0987a0243c5
:101ba0009a720122114202d0997a0a439a727047be
:041bb00000140043da
:020000040000fa
:101bb4000b2300280ad003681a8802238a4205d31b
:101bc40006235943012382688b540023180070476d
:020000040000fa
:101bd4000b23002809d0002a07d00c234b4381682b
:0e1be400c91801230b7000234a6018007047d7
:020000040000fa
:021bf200fee70c
:020000040000fa
:101bf400054a138802210b431380110002220b694a
:0c1c04001a42fcd17047c046002000408e
:020000040000fa
:101c1000054a138802218b431380110002220b69ad
:0c1c20001a42fcd17047c0460020004072
:020000040000fa
:101c2c00054b9868db68984201d3c01a7047024a8a
:0c1c3c0012698018c01af9e75c01002052
:020000040000fa
:101c4800054ad36a906a834201d8c01a7047024a8b
:0c1c5800126b8018c01af9e75c01002034
:020000040000fa
:101c640000b583b06b46d871073301211800fff724
:061c7400f1f903b000bd10
:020000040000fa
:021c7a00fee783
:020000040000fa
:101c7c00034b9861190008220b691a42fcd170477a
:041c8c0000200040f4
:020000040000fa
:101c9000034b1862190020220b691a42fcd17047cd
:041ca00000200040e0
:020000040000fa
:101ca40010b5034b1c69fff7bfff013c201a10bda0
:041cb4005c010020af
:020000040000fa
:101cb80010b5034b01221a70142000f04ff810bd24
:041cc8000f020020e7
:020000040000fa
:101ccc0043001b185b000248c31858887047c04675
:041cdc00f8010020eb
:020000040000fa
:101ce00043001b189b000248c31818897047c04660
:041cf000dc010020f3
:020000040000fa
:101cf40043001b185b000248c31898887047c0460d
:041d0400f8010020c2
:020000040000fa
:101d0800034b9a6843001b189b00d05c7047c04681
:041d1800280200207d
:020000040000fa
:101d1c000b23002802d0024b1860002318007047d8
:041d2c00080000208b
:020000040000fa
:101d300003b47146490840004900095a49008e44dd
:041d400003bc704729
:020000040000fa
:101d4400024a98238021c900d150704700280040de
:020000040000fa
:101d5400024a53781b06fcd47047c0460014004363
:020000040000fa
:101d6400024b1a88801818807047c046f60100207c
:020000040000fa
:0c1d7400014b84225a607047004000417f
:020000040000fa
:0c1d8000014b186099607047d0010020f2
:020000040000fa
:0c1d8c00014b01221a7070471002002069
:020000040000fa
:0c1d980010b5fff7f9fefff785fb10bd4a
:020000040000fa
:081da40010b5fff787ff10bd29
:020000040000fa
:081dac0010b5fff791fc10bd1a
:020000040000fa
:021db400704776
:020000040000fa
:021db600fee746
:020000040000fa
:021db800704772
:020000040000fa
:0200000400807a
:04400000770600b08f
:020000040000fa
:0200000400807a
:04400400bb00ffffff
:00000001FF
